:020000040000FA
:1000000038100020850100008D010000611A0000F9
:1000100000000000000000000000000000000000E0
:100020000000000000000000000000009701000038
:1000300000000000000000009B0100006D3900007E
:100040006D1C00007D1C0000AD1C0000DD1C0000CC
:100050000D1D00003D1D00006D1D00009D1D0000D8
:10006000AD1D0000BD1D0000F11D0000051E0000BB
:10007000151E0000491E0000591E0000691E0000E8
:100080009D1E0000CD1E0000DD1E0000ED1E0000C4
:10009000FD1E00000D1F00001D1F0000511F00006D
:1000A000851F0000B51F0000E91F0000F91F0000B8
:1000B000092000001920000029200000392000003C
:1000C000EF3BE9FF00F002F800F030F80CA030C878
:1000D000083824182D18A246671EAB4654465D46C4
:1000E000AC4201D100F022F87E460F3E0FCCB6465E
:1000F0000126334200D0FB1AA246AB4633431847D1
:10010000D85A0000F85A00000023002400250026D9
:10011000103A01D378C1FBD8520700D330C100D5C3
:100120000B6070471FB51FBD10B510BD00F032FB4E
:100130001146FFF7F7FF04F0A3FF00F04AFB03B4FA
:10014000FFF7F2FF03BC00F07FFB000070B505462F
:100150000C46164602E00FCC0FC5103E102EFAD208
:10016000082E02D303CC03C5083E042E07D301CCCE
:1001700001C5361F03E021782970641C6D1C761EB2
:10018000F9D270BD1948804719480047FEE7FEE7DD
:10019000FEE7FEE7FEE7FEE7FEE7FEE7FEE7FEE737
:1001A000FEE7FEE7FEE7FEE7FEE7FEE7FEE7FEE727
:1001B000FEE7FEE7FEE7FEE7FEE7FEE7FEE7FEE717
:1001C000FEE7FEE7FEE7FEE7FEE7FEE7FEE7FEE707
:1001D000FEE7FEE7FEE7FEE7FEE7FEE7FEE70000DC
:1001E00004480549054A064B704700009D39000048
:1001F000C50000003809002038100020380A00200F
:10020000380A0020F8B5042A2CD3830712D00B78C3
:10021000491C0370401C521E83070BD00B78491CED
:100220000370401C521E830704D00B78491C0370D6
:10023000401C521E8B079B0F05D0C91ADF002023DC
:10024000DE1B08C90AE0FFF781FFF8BD1D4608C99B
:10025000FD401C46B4402C4310C0121F042AF5D2A6
:10026000F308C91A521EF0D40B78491C0370401CC5
:10027000521EEAD40B78491C0370401C012AE4D4B6
:1002800009780170F8BDD2B210B513029A181304A0
:100290009A1800F00EF810BD01E004C0091F0429EF
:1002A000FBD28B0701D50280801CC90700D00270E9
:1002B000704700290BD0C30702D00270401C491EB2
:1002C000022904D3830702D50280801C891EE3E73C
:1002D0000022EEE70022DFE7002203098B422CD345
:1002E000030A8B4211D300239C464EE003460B4386
:1002F0003CD4002243088B4231D303098B421CD3E8
:10030000030A8B4201D394463FE0C3098B4201D3D9
:10031000CB01C01A524183098B4201D38B01C01A11
:10032000524143098B4201D34B01C01A5241030988
:100330008B4201D30B01C01A5241C3088B4201D337
:10034000CB00C01A524183088B4201D38B00C01AE4
:10035000524143088B4201D34B00C01A5241411A0B
:1003600000D201465241104670475DE0CA0F00D0EE
:100370004942031000D34042534000229C460309E7
:100380008B422DD3030A8B4212D3FC22890112BA6D
:10039000030A8B420CD3890192118B4208D3890145
:1003A00092118B4204D389013AD0921100E089095D
:1003B000C3098B4201D3CB01C01A524183098B423E
:1003C00001D38B01C01A524143098B4201D34B0127
:1003D000C01A524103098B4201D30B01C01A52418A
:1003E000C3088B4201D3CB00C01A524183088B4211
:1003F00001D38B00C01A5241D9D243088B4201D39A
:100400004B00C01A5241411A00D201466346524184
:100410005B10104601D34042002B00D54942704783
:1004200063465B1000D3404201B50020C046C04681
:1004300002BD7047704770470121C905012341186B
:1004400042001B06D3185B0E0AD0C1100722D20649
:10045000891840075242D14201D55200891870478D
:10046000090208D50146002A03D0C10FC9070020A0
:10047000704710467047420202D000200249704780
:10048000072109050143F4E70000F87FF0B5FF25D7
:100490002D04C609C209FF2704462E400137CB09A7
:1004A0003E4348402A402B400746002A6BD0002B91
:1004B00069D0AA4267D0AB4265D0002800DA324644
:1004C0000125ED0529432C4309022002090AD21A0D
:1004D0004B0C7F24E31A434C000A7C44E35C7D24EC
:1004E0002404121914145B00A218884201D3521C70
:1004F00000E0400049420C465C4324115C43DB01B0
:100500006415E318040A5C43C502200D0C464443FD
:100510006419250A5D432303EC0C0D466543000373
:100520000019EB184C42A34201D35B18401CD405C0
:100530002018002B07D05B00C91804D3401C0029E9
:1005400001D1400840003F2189048A4209D3002A92
:1005500008DC1106090F04D0032149074018C00F19
:10056000C007F0BD01224100120689187F22520601
:100570009142F6D205214907C84201D59010F0BD3D
:10058000FF20C005F0BD002F00DA32461648AA420F
:1005900007D2AB4205D21902090E17D0F80FC007D7
:1005A000F0BDFF2563002D06AB42F9D84900A942F2
:1005B000F6D8AB4201D1A942F2D0A94201D1002123
:1005C00001E061004908D0050843F0BD1102090EA1
:1005D000FBD0FF200243D005F0BD0A46014610467D
:1005E00054E70000BA5600000000C07F1F22030C31
:1005F00002D10F2200041CD0030E01D10002083AE0
:10060000030F01D10001121F830F01D18000921E40
:10061000002801DB4000521ED20551180212511869
:100620001922904004D3491C002801D149084900EF
:1006300008467047C10FC90700D040420122920707
:100640001143D3E701218907D0E70000F8B5224C18
:100650004E00069DA6420AD8A64201D1002806D126
:100660005E00A64203D8A6420AD1002A08D00D2473
:10067000240425422CD02946002000F061F8F8BD62
:100680000C461C430CD4994202D0EFF30080F8BD15
:10069000904202D0EFF30080F8BDEFF30080F8BD88
:1006A00009242407E5008B4206D0EFF30080A04325
:1006B000591A06D2284304E0101A05D3EFF300803C
:1006C000A04380F30088F8BDEFF30080A043F1E77A
:1006D000009500F04DF8F8BD0000E0FF10B5FF23D5
:1006E0001B0644009C421DD84C009C421AD803466D
:1006F000124A0B4307D4401A02D3EFF3008010BD17
:10070000EFF3008010BD081A06D2EFF3008001213C
:100710009043C907084302E0EFF30080904380F361
:10072000008810BD0D231B041A4204D0114600207E
:1007300000F006F810BD00F025F810BD0000009094
:10074000C80212D54803400F002804D0C803C04394
:10075000012188407047EFF3008000010009032168
:100760000907084380F300887047002070470000A5
:1007700010B500200249029A00F033F810BD0000C5
:100780000000F87F10B5024800F02BF810BD000003
:100790000000C07F754600F053F8AE46050069467C
:1007A0005346C008C000854618B020B5FFF718FDB5
:1007B00060BC00274908B6460026C0C5C0C5C0C5F4
:1007C000C0C5C0C5C0C5C0C5C0C5403D49008D46F7
:1007D000704710B50446C046C0462046FFF7AFFC40
:1007E00010BD10B50C461107090F092904D00A29BC
:1007F0000AD008290CD104E011460820FFF7A0FF19
:1008000006E0510606D501E0510601D50120C007DA
:10081000214610BDD10607D501010909CC084907B9
:10082000000E0006044309E0410F20024907000AB8
:100830000143200E00061D22D14101430846E7E78F
:1008400000487047D408002001491820ABBEFEE7DD
:1008500026000200704770B58C180578401C6B07A5
:100860005B0F01D10378401C2A1106D10278401C8D
:1008700003E00678401C0E70491C5B1EF9D12B0763
:1008800005D40023521E0DD40B70491CFAE70378DF
:10089000401CCB1A921C03E01D780D70491C5B1C98
:1008A000521EF9D5A142D8D3002070BDF8B5054637
:1008B0000E4614460020009001211C4801751C487A
:1008C000007888431A490870084680780821084350
:1008D0001749887000208871084600780121084374
:1008E0001349087008460572002717E01048007881
:1008F000802108430E49087000BF0E48007D002883
:10090000FBD000200B4908750948C0892080A41C31
:100910000748C1890098081800907F1CB742E5D3AA
:1009200031460098FFF7D8FC80B2F8BD4061004026
:10093000005004404060004010B504462078002874
:1009400002D02078802800D103E02E2135A004F0C9
:10095000F3F90121202000F039FA0020364908700F
:10096000012136480175002035490875152004F02D
:100970005FF931488078E17808432F49887008464C
:100980008078217808432C4988702078802806D107
:1009900008460079E179490008432749087126484B
:1009A0008078E17A084324498870A078002803D130
:1009B0000846007908710FE0A078012806D11E488A
:1009C0000079602108431C49087105E01A48007944
:1009D0008021084318490871174880792179084314
:1009E00015498871084680796179084312498871F0
:1009F000207AC872607A8872084600783821884365
:100A00000D490870084600786178C90008430A4912
:100A10000870A07A08730846007801210843064947
:100A2000087010BD2E2E5C4472697665725C73721C
:100A3000635C6164632E63000050044040610040C9
:100A40004060004010B5084800788021884306497E
:100A50000870012105480175002005490875152019
:100A600004F0E6F810BD0000005004404061004072
:100A70004060004070B505460C46114828400028EB
:100A800000D103E037210FA004F056F90C482040B4
:100A9000002800D103E038210AA004F04DF9A80095
:100AA0000F494018005D002802D00320C04370BDEC
:100AB0000120A9000A4A891808550020F7E700001C
:100AC000FCFF00002E2E5C4472697665725C7372C6
:100AD000635C7363695F636F6D6D6F6E2E6300009F
:100AE00000000020FEB5002400200290019000903C
:100AF00000250026464F474800784749085C45498D
:100B00004870487801AA0221FFF7D0FE0090FFF755
:100B100099FF4048007801013E48801C405C0290EB
:100B20003C4909780A013B49891C5118091D029A60
:100B30005200009888523748007801013548801CDF
:100B4000405C401CC1B23348007802013148801C2F
:100B50008154801E007801012E48801C405C0628CC
:100B600054DB00212B48007802012A48801C815464
:100B700000BF33E02748007801012648801C081890
:100B8000001D6100405AB04208DD22480078010192
:100B90002048801C0818001D6100465A1D48007836
:100BA00001011C48801C0818001D6100405AB84211
:100BB00008DA1848007801011648801C0818001D42
:100BC0006100475A1348007801011248801C081838
:100BD000001D6100405A4519601CC4B2062CC9DBD7
:100BE000A81BC51BA804010D0A480078020109488A
:100BF000801C1018418007480078401C0549087087
:100C000008460078032801DB00200870FEBD0000C4
:100C1000FF0F00008A01002040560000014600201E
:100C20000C2902D1074A90880AE00E2902D1054A10
:100C3000908A05E0082902D1024A908C00E0002049
:100C4000704700008A01002070B504460E46154624
:100C5000224631462846FFF716FB70BD00B5FFB0AF
:100C600084B0832189006846FFF734FB1C48006884
:100C70001C490860084600681B49884228D10220A8
:100C800002F04AFE02F0EEFA1748C0431549086028
:100C900002F0F0F95020694608720221684641725C
:100CA000002181723221C17201210173F42141734B
:100CB000062001900D48036A019881B202AA3D20E6
:100CC00001F0D0FB01200A49087000F053F903E05D
:100CD00004480068034908607FB004B000BD00000C
:100CE000000250007C040020AA5555AA6C5B00004D
:100CF0006D01002010B50E4800680E49884203DBE4
:100D000001200D49087004E009480068401C0849AA
:100D1000086009480078012808D108480068084997
:100D2000884203D10520000302F070FA10BD0000D4
:100D300080040020B80B0000840400207C04002004
:100D4000699655AAF8B504460D460020002C00D13E
:100D500000BF002A00D100BF012C01D14126304341
:100D6000012A01D112263043022C01D1C026304382
:100D7000022A01D130263043134E30707678802716
:100D8000BE43114F7E70012C08D1FF2100BF0E4ED3
:100D9000B3781E460E4033468B42F8D10A4E767821
:100DA0004027BE43084F7E70012A0BD100260096D3
:100DB00003E000BF009E761C0096FF276937009E67
:100DC000BE42F6D9F8BD00000004024070B50446EA
:100DD0000D46E0B2002802D0002C00D003E01E2116
:100DE0000CA003F0A9FF002D01D0012D00D103E0DC
:100DF0001F2108A003F0A0FF002D05D00A480078AD
:100E000020430949087004E007480078A0430649D8
:100E1000087070BD2E2E5C4472697665725C7372C8
:100E2000635C6367632E63002004024070B5044670
:100E30000D46E0B2002802D0002C00D003E03F2194
:100E40000CA003F079FF002D01D0012D00D103E0AB
:100E5000402108A003F070FF002D05D00A48807ED5
:100E600020430949887604E00748807EA04306496C
:100E7000887670BD2E2E5C4472697665725C7372E2
:100E8000635C6367632E63000008024000B5C02204
:100E90009178F82211401C4A127811431B48EA2924
:100EA00023D00ADC0A46E03A130003F0B2FE0A1827
:100EB0001C20242A2A2A2A161A2AED291FD004DCEB
:100EC000EB2916D0EC291CD117E0F02903D0F82922
:100ED00017D10F4815E00F4813E00D4811E00E48F8
:100EE0000FE00E480DE00E480BE00E4809E00E48FA
:100EF00007E00E4805E00E4803E00E4801E0034815
:100F000000BF00BF00BD0000201C024040420F0097
:100F10000048E801006CDC0200366E010024F40099
:100F2000001BB70000127A00808D5B0000093D00B5
:100F3000C0C62D0080841E0030B50B4600210BE09A
:100F400004785D5C6C402406A40D054D2C590568A1
:100F50002D0A6C400460491C9142F1D330BD000061
:100F60005C5600000168C943016070470021C94315
:100F70000160704700200149087070473505002066
:100F800070B505460C460026667A002E06D0032E64
:100F900005D0802E0AD0832E0DD108E000BF28781E
:100FA000403020726672022060600AE000BF0020BC
:100FB0002072606005E028782246122102F0B2FC1F
:100FC00000BF00BF70BD70B505460C460026667AAE
:100FD000012E06D0022E05D0812E0AD0822E0CD1F1
:100FE00008E000BF287840302072667202206060FE
:100FF00009E000BF0020606005E028782246122149
:1010000002F090FC00BF00BF70BD0000012003494A
:101010000989002900D00020704700000005002049
:1010200004480089002804D002480089401E014974
:101030000881704700050020014A108170470000B8
:101040000005002070B506460C460025657A30780C
:1010500040302072657202206060812D0DD006DC68
:10106000012D09D0022D13D0032D2AD11EE0822D8F
:101070000FD0832D25D11AE000BF012002F04CFCD7
:10108000012002F065FC812D01D1002060601EE08E
:1010900000BF022002F040FC822D01D100206060E0
:1010A00002F0E0F80B480C49086010E000BF042093
:1010B00002F032FC832D01D10020606002F0D2F8F2
:1010C00005E030782246122102F02CFC00BF00BF60
:1010D00070BD000055AAAA557C04002010B501F08F
:1010E0000CFC10BD10B502F0EFF910BD10B50020DA
:1010F00010494870087002F0D7F9FFF7EFFF01F0D0
:1011000014FC01F083FA0121032000F0F5FA01F04C
:1011100039FA0121032000F03BFB0020064908704A
:1011200002F0B0FCFFF79AFD02F0C8F902F0D2F924
:1011300010BD0000880100206E01002010B50D4890
:101140004078002804D0012806D002280FD10BE0F7
:101150000120084948700AE006480078012802D1B9
:1011600002200449487002E0FFF7BCFF00BF00BF47
:1011700010BD00008801002070B50546002605203E
:101180000003854201D1D82601E0002070BD002473
:101190000AE003F037FD6102481900F009F8002861
:1011A00000D1F3E7601C84B2B442F2DB0120EDE72A
:1011B00010B50446204604F072F8002801D0002043
:1011C00010BD0120FCE77FB504460D461646002100
:1011D000684601710294858102F010FB0121684686
:1011E000017102F00BFB02216846017102F006FB5F
:1011F0000098B04202D1012004B070BD0020FBE78E
:10120000014608787047F8B505460E461746002493
:1012100009E0305D00902819009900F009F80028D5
:1012200000D1F8BD641CBC42F3D30120F9E70000F3
:1012300030B503460C461D46F1200F490862AA202E
:101240004860552088602C7000BF0B480068C007BC
:10125000C00F0028F9D0084800680121084306495A
:101260000860002008621846FFF7CAFFA04201D1BB
:10127000012030BD0020FCE70000024007480021AB
:10128000016041600648016041608160054801607D
:101290004160054801604160704700000C05002076
:1012A00030060020140500201C050020F8B5024679
:1012B0000B4600250020009000260024002A13D0B1
:1012C000012A11D0022A0FD0032A0DD0042A0BD0F4
:1012D000052A09D0062A07D0072A05D00C2A03D0F0
:1012E0000D2A01D00E2A01D1012000E000200028A3
:1012F00000D004E0FF21403179A003F01DFD1878F3
:10130000002801D0012000E00020002800D004E0E7
:10131000FF21413172A003F00FFD9878012802D01F
:101320009878002801D1012000E00020002800D09A
:1013300004E0FF2142316AA003F0FEFCD8780128C6
:1013400002D0D878002801D1012000E00020002838
:1013500000D004E0FF21433161A003F0EDFC002543
:10136000B9E00120A84086B218883040009000986B
:10137000B04272D12C46987901280DD15E480321E4
:1013800009024018805C0121A14008435A49032703
:101390003F02C91988540CE057480321090240183C
:1013A000805C0121A1408843534903273F02C919AA
:1013B0008854D87800285FD14F486030805CD97855
:1013C000002901D1012100E00021A14088434A49C0
:1013D000603188549878002840D147481921490144
:1013E0004018805C9978002901D1012100E000219A
:1013F000A1408843404919277F01C91988541879A9
:10140000002802D01879012801D1012000E0002035
:10141000002800D004E0FF215B3131A003F08CFCF8
:10142000187900280ED134485030805C1979002991
:1014300001D1012100E00021A14088432E49503113
:10144000885423E02C485030805C1979A14008432F
:10145000C1B229485030815418E03AE02648192199
:1014600049014018805C9978A14008432249192716
:101470007F01C919885409E01F486030805CD97821
:10148000A1400843C1B21C486030815458790028FB
:1014900005D05879012802D05879022801D10120BD
:1014A00000E00020002800D004E0FF216E310CA0F5
:1014B00003F042FC587901280AD10F483030805C93
:1014C0000121A1400843C1B20B483030815400E0F3
:1014D00000BF681C85B2082D00DA42E7F8BD0000A5
:1014E0002E2E5C4472697665725C7372635C677001
:1014F000696F2E630000000000000440FFB5044641
:101500000F461D460026002C13D0012C11D0022CB2
:101510000FD0032C0DD0042C0BD0052C09D0062C99
:1015200007D0072C05D00C2C03D00D2C01D00E2C8D
:1015300001D1012000E00020002800D003E01E4976
:101540001EA003F0F9FBF8B2002801D0012000E052
:101550000020002800D004E01749491C17A003F020
:10156000EBFB212D00DB00D104E01349891C13A003
:1015700003F0E2FB3946204600F02EF8002802D0A6
:10158000012004B0F0BD00260CE00A207043114990
:10159000085CA84204D13046029900F045F907E002
:1015A000701C86B20A2070430A49085C0028ECD1FE
:1015B00000BF0020E5E70000150200002E2E5C446D
:1015C00072697665725C7372635C6770696F2E63B3
:1015D000000000000C0000200246002A03D1402930
:1015E00001DD01207047032A03D1022901DD01201A
:1015F000F8E7042A01D0062A03D1082901DD0120D9
:10160000F0E7052A03D1202901DD0120EAE70C2AB1
:1016100003D1102901DD0120E4E70D2A05D10129BC
:1016200003DD402901DA0120DCE70E2A05D1022979
:1016300003DD402901DA0120D4E70020D2E70000D1
:1016400010B502460B460024002A13D0012A11D0FF
:10165000022A0FD0032A0DD0042A0BD0052A09D064
:10166000062A07D0072A05D00C2A03D00D2A01D05C
:101670000E2A01D1012000E00020002800D004E063
:10168000FF21C03115A003F057FB012B0DD0022B19
:101690000BD0042B09D0082B07D0102B05D0202B02
:1016A00003D0402B01D0802B01D1012000E000208D
:1016B000002800D004E0FF21C13108A003F03CFB6A
:1016C0000C48032109024018805C1840002801D012
:1016D000012400E00024204610BD00002E2E5C44B2
:1016E00072697665725C7372635C6770696F2E6392
:1016F000000000000000044010B502460B46002A1E
:1017000013D0012A11D0022A0FD0032A0DD0042AA7
:101710000BD0052A09D0062A07D0072A05D00C2AA3
:1017200003D00D2A01D00E2A01D1012000E00020B3
:10173000002800D004E0FF219D310EA003F0FCFA48
:10174000D8B2002801D0012000E00020002800D0FD
:1017500004E0FF219E3107A003F0EEFA0B480321BD
:1017600009024018805C984308490324240209199F
:10177000885410BD2E2E5C4472697665725C73725B
:10178000635C6770696F2E63000000000000044016
:1017900010B502460B46002A13D0012A11D0022AA6
:1017A0000FD0032A0DD0042A0BD0052A09D0062A0F
:1017B00007D0072A05D00C2A03D00D2A01D00E2A03
:1017C00001D1012000E00020002800D004E0FF212A
:1017D0008A310EA003F0B0FAD8B2002801D001205F
:1017E00000E00020002800D004E0FF218B3107A09A
:1017F00003F0A2FA0B48032109024018805C184349
:101800000849032424020919885410BD2E2E5C4473
:1018100072697665725C7372635C6770696F2E6360
:10182000000000000000044070B502460020B1E056
:101830000A2353435A4C1B195B1C440004191B19FF
:101840009B788B427DD10A235343554C1B195B1C5B
:10185000440004191B195B78082B33D10A23534326
:101860004F4C1B195B1C440004191B574D4C4E4D2B
:101870006419E35C012423430A245443484D64194A
:10188000641C450045196457464D474EAD192B550C
:101890000A235343424C1B195B1C440004191B5779
:1018A000404C35466419E35C022423430A24544324
:1018B0003B4D6419641C450045196457394DAD19F9
:1018C0002B5564E00A235343354C1B195B1C440021
:1018D00004191B195B78092B34D10A235343304C6C
:1018E0001B195B1C440004191B572E4C2E4D641908
:1018F000E35C402423430A245443294D6419641CA7
:10190000450045196457274D274EAD192B550A231D
:101910005343234C1B195B1C440004191B57214CD7
:1019200035466419E35C8024A3430A2454431C4DC8
:101930006419641C4500451964571A4DAD192B559F
:1019400025E025E00A235343154C1B195B1C44007A
:1019500004191B57134C144D6419E35C0A245443B7
:101960000F4D6419641C45004519641965780124FC
:10197000AC402343DCB20A235343094D5B195B1C83
:10198000450045195B57074D074EAD19EC5404E06F
:10199000431CD8B2032800DA4AE700BF70BD00003C
:1019A0000C000020000004407508000010B502463D
:1019B0000B46002A13D0012A11D0022A0FD0032A85
:1019C0000DD0042A0BD0052A09D0062A07D0072AF1
:1019D00005D00C2A03D00D2A01D00E2A01D10120F6
:1019E00000E00020002800D004E0FF21AF310EA06D
:1019F00003F0A2F9D8B2002801D0012000E00020B5
:101A0000002800D004E0FF21B03107A003F094F9D2
:101A10000B48032109024018805C58400849032400
:101A200024020919885410BD2E2E5C447269766513
:101A3000725C7372635C6770696F2E6300000000F4
:101A40000000044001460C20087001487047000067
:101A50000C5B0000014880887047000000050020F2
:101A600000BFFEE7FEB504460025002000900027D9
:101A7000002620880F2109030840002803D1208870
:101A8000002800D003E00F2133A003F055F9002512
:101A90000BE00120A84087B22088384000900098D1
:101AA000B84200D12E46681C85B2102DF1DB20888B
:101AB000FF281FDC2E48407E218888432C49487629
:101AC0000846007E21888843294908760846407EDA
:101AD000A178C907C90FB14008432549487608468F
:101AE000007EA178022211404908B14008432049F4
:101AF000087622E01E48C07E218888431C49C876AB
:101B00000846807E2188884319498876A078C007D6
:101B1000C00F3146083988401549C97E0843144929
:101B2000C876A0780221084040083146083988402C
:101B30000F49897E08430E4988760020019005E010
:101B400000BF68460079401CC1B201916846007927
:101B50000128F5D9FEBD00002E2E5C447269766521
:101B6000725C7372635C696E74702E6300000000B7
:101B7000205B0440C107C90F002905D00021394A64
:101B80001171002238490A7102210140002905D053
:101B90000021344A1172002233490A7204210140A3
:101BA000002905D000212F4A117300222E490A7303
:101BB00008210140002905D000212A4A1174002281
:101BC00029490A7410210140002905D00021254A25
:101BD0001175002224490A7520210140002905D0F1
:101BE0000021204A117600221F490A764021014037
:101BF000002904D000221B494A711B494A718021E7
:101C00000140002904D0002216494A7216494A723E
:101C1000FF2101310140002904D0002211494A73FB
:101C200011494A73012149020140002904D00022D0
:101C30000C494A740C494A74012189020140002967
:101C400004D0002207494A7507494A750121C90293
:101C50000140002904D0002202494A7602494A760E
:101C600070470000006000400061004010B5024A6B
:101C700050689168884710BDC001002010B5084821
:101C80000079002803D0074A106951698847044841
:101C90004079002803D0044A50689168884710BDF5
:101CA00000600040C00100204C03002010B508482F
:101CB000007A002803D0074AD069116A884704488F
:101CC000407A002803D0044A50689168884710BDC4
:101CD00000600040C00100205803002010B50848F3
:101CE000007B002803D0074A906AD16A88470448DD
:101CF000407B002803D0044A50689168884710BD93
:101D000000600040C00100206403002010B50848B6
:101D1000007C002803D0074A506B916B8847044829
:101D2000407C002803D0044A50689168884710BD61
:101D300000600040C00100207003002010B508487A
:101D4000007D002803D0074A106C516C8847044876
:101D5000407D002803D0044A50689168884710BD30
:101D600000600040C00100207C03002010B508483E
:101D7000007E002803D0074AD06C116D88470448C4
:101D8000407E002803D0044A50689168884710BDFF
:101D900000600040C00100208803002010B5024A06
:101DA000906DD16D884710BDC001002010B5024A6A
:101DB000506E916E884710BDC001002010B50948D3
:101DC0000079002803D0084A106F516F88470548F2
:101DD000001D4078002803D0044A50689168884765
:101DE00010BD000020600040C0010020AC030020B6
:101DF00010B5034AD06F78329168884710BD000053
:101E0000C001002010B5024A50689168884710BD93
:101E10004402002010B50948007C002803D0084A7D
:101E2000506891688847054810304078002803D0F2
:101E3000044A50689168884710BD00002060004047
:101E400050020020D003002010B5024A506891686B
:101E5000884710BD5C02002010B5024A50689168A6
:101E6000884710BD6802002010B50948007F00288F
:101E700003D0084A50689168884705481C3040786C
:101E8000002803D0044A50689168884710BD0000BC
:101E90002060004074020020F403002010B50848C0
:101EA0000078002803D0074A5068916888470448A2
:101EB0004078002803D0044A50689168884710BDD4
:101EC00040600040800200200004002010B5024A5B
:101ED00050689168884710BD8C02002010B5024AF6
:101EE00050689168884710BD9802002010B5024ADA
:101EF00050689168884710BDA402002010B5024ABE
:101F000050689168884710BDB002002010B5024AA1
:101F100050689168884710BDBC02002010B5094880
:101F2000007E002803D0084A506891688847054819
:101F300018304078002803D0044A506891688847D8
:101F400010BD000040600040C8020020480400208E
:101F500010B50948007F002803D0084A50689168EE
:101F6000884705481C304078002803D0044A506850
:101F70009168884710BD000040600040D4020020F6
:101F80005404002010B508480078002803D0074A00
:101F900050689168884704484078002803D0044A74
:101FA00050689168884710BD60600040E0020020E2
:101FB0006004002010B509480079002803D0084AC1
:101FC0005068916888470548001D4078002803D074
:101FD000044A50689168884710BD00006060004066
:101FE000EC0200206C04002010B5024A5068916891
:101FF000884710BDF802002010B5024A5068916869
:10200000884710BD0403002010B5024A506891684B
:10201000884710BD1003002010B5024A506891682F
:10202000884710BD1C03002010B5024A5068916813
:10203000884710BD2803002010B5024A50689168F7
:10204000884710BD34030020F0B5024600240C2060
:102050005043224B185C002801D00120F0BD0C2019
:1020600050431E4BC01881600C205043C01880683C
:10207000002801D10120F1E701230C205043174D26
:102080002B5400251046D617F60E36187611760119
:10209000961BB600124FF619D717FF0EBF187F1107
:1020A000F55500BF002804DBC506ED0EAB400D4D15
:1020B0002B6000BF00251046D617F60E3618761195
:1020C0007601961BB700084EBE191346D717FF0EB0
:1020D000FF187F11F5552046C0E70000C001002021
:1020E0000060004080E200E00061004000BFFEE7C9
:1020F00008B50121684601808170FFF7B3FC0449EF
:102100000120FFF7A1FF0120FFF734FD08BD00000B
:10211000094F000070B503460A460021002400253F
:10212000002B06D0012B07D0022B08D0032B0CD19B
:1021300008E0124D05240AE0114D042407E0114D7A
:10214000042404E0104D042401E0002070BD00BF11
:10215000002D02D05068A04201D20020F6E709E02D
:1021600010460830405C6E5CB04201D00020EDE7C4
:10217000481CC1B2A142F3DB0120E7E7FA5A000094
:10218000035B0000FF5A0000075B000010B5044627
:1021900021460320FFF7BEFF10BD10B504462146BF
:1021A0000120FFF7B7FF10BD01460020054A527815
:1021B0000A40044B5B789A4201D1012000E00020E4
:1021C000704700000005002001460020044A927874
:1021D0000A40002A01D0012000E0002070470000E2
:1021E0000005002001460020054A12780A40044BF1
:1021F0001B789A4201D1012000E0002070470000C6
:1022000000050020014605200003814205D301207E
:102210004004814201D8012070470020FCE70146BC
:102220001B200003814201D8012070470020FCE7F9
:1022300010B5044621460220FFF76CFF10BD10B513
:10224000044621460020FFF765FF10BDFEB5054698
:102250000C4616460020029001902078000261781A
:10226000084307466946384602F024FB002107E090
:102270006846405C6A5C904201D00020FEBD491C6B
:10228000B142F5DB0120F9E7014800787047000012
:1022900035050020002006498988002905D1044918
:1022A0000978012901D0012000E0002070470000DA
:1022B00000050020FCB503460C46082C01D0002088
:1022C000FCBD3C2B01D00020FAE71078072804D091
:1022D00010787E2801D00020F2E750780111002903
:1022E00005D0012903D0022901D00020E8E7507869
:1022F0000007000F0190002924D148480361684677
:102300008588464810308580002004E0FF26434D34
:1023100018352E54401C6D46AD88A842F6DB0020CF
:1023200005E0851C565D3D4D18352E54401C6D460C
:10233000AD88A842F5DB0120394D287000BF394D2A
:10234000287068E001292FD13448036168468088ED
:10235000000295784019344D2880284605882F487A
:1023600010308580002004E0FF262C4D18352E54B7
:10237000401C2D4D2D88A842F6DB002005E0C51C31
:10238000565D264D18352E54401C0528F7D30520E0
:10239000264D288024480088401F234D288000BFF8
:1023A0000220204D287036E0022934D150780007F1
:1023B000000F00900098042800DB00BF00BF03203E
:1023C000184D287000BF062501951748008806287B
:1023D00005DD15480088801F134D288007E0012087
:1023E0000F4D287000BF00200E4D287000BF002048
:1023F0000CE0851C565D094D18350C4F3F88EE5595
:102400000A4D2D886D1C094E3580401C6D46AD88E7
:10241000A842EEDB00BF012052E70000BC0600200E
:102420003505002034050020380500203A0500203D
:1024300010B503460A4800691860094810308088C2
:102440000860002004E0064C1834245C1454401C3E
:10245000034C1034A4888442F5DC012010BD000038
:10246000BC060020FFB581B006460D460020009056
:10247000062D0DD81F4886608581002005E0039950
:102480000A5C1C4910310A54401CA842F7DB2EE0BC
:1024900018488660681F0621FDF71EFF401CC7B262
:1024A000002422E0002C05D101200003284311491B
:1024B00088810DE02046E117090F0918091109016B
:1024C000611A09020122520311438AB209498A8121
:1024D000781EA04207D001200749087000BF0648B7
:1024E00000780128FBD0601CC4B2BC42DADB0120BA
:1024F00005B0F0BD3C0600206D0100200022064B17
:102500001A730023054A13730022054B1A80054AEB
:102510001180054A10607047206000402061004033
:102520005C0100205E0100205801002010B5082148
:10253000002001F02FFB002008490874A320800030
:102540000749C8820021074801740821002001F0D2
:10255000F5FA00200449086010BD0000406000400A
:10256000801D04404061004064010020034A9060E7
:1025700051600122024B1A7270470000FC050020D6
:102580002060004010B503201849C8740121084696
:10259000FEF71CFC00201649C882FFF7A9FD4B205E
:1025A000000202F07FFA13490A20FFF74DFD12499D
:1025B0000B20FFF749FD11491420FFF745FD0121CC
:1025C0000F4801740F4A0221002001F073FA022122
:1025D000002001F0B3FA0C491220FFF735FD00216D
:1025E000122002F031FBFFF7A1FF10BD6004044090
:1025F000A01D0440215200007151000091500000C4
:102600004061004080BB0000312600001CB5002066
:1026100000900190012168460180002181700171C4
:102620008171C17069460320FEF740FE1CBD0000A9
:1026300010B500206A4908726A480078030002F069
:10264000E8FA0504050B1B54CC0000BF00206649C6
:10265000086066490870C1E06448007800280AD024
:10266000614801680068401C5F4A10606048814210
:1026700001D900F0A5FCB1E05E480078012827D11F
:1026800000205C49087000F09BFC5B494978880693
:10269000800E5949891C00F0F4F804465648807AA7
:1026A000A04214D1544840788006800E3C280ED1B8
:1026B000002005E05049891C095C504A1154401C17
:1026C0000828F7DB4D4A08213C2001F0A3FB00BF9E
:1026D0004B4801680068401C494A1060FF20F530F3
:1026E000814201D900F06CFC78E04648007800286F
:1026F00063D14548007801286ED1002003E0FF2116
:10270000424A1154401C0828F9DB07203F49087051
:102710003F488089062810DC3D48808948700020A9
:1027200006E03B4910310A5C811C384B5A54401C6E
:10273000374989898142F4DC2DE0354880890013CE
:10274000012813D13248808900123049487030483E
:1027500080898870002006E02D4910310A5CC11C78
:102760002A4B5A54401C0528F6D314E02848808987
:10277000001302280FD1264880890012234948708F
:10278000002006E0224910310A5C811C1F4B5A547C
:10279000401C0628F6D31D493D2000F03FF80120DB
:1027A0001849087000201849087018488078512886
:1027B00012D10120174908700EE012480078012854
:1027C0000AD115480078012806D100F0F9FB002055
:1027D000114908700B49087000E000BF00BF10BD30
:1027E000406000406E010020700100207801002050
:1027F000DC05000061010020E705002079010020D0
:10280000740100206C0100206D010020F205002001
:102810003C060020780400206001002070B50646C8
:102820000D46002404E0295D08480155601CC4B22F
:10283000082CF8DB2946304600F023F80349891EAE
:10284000887209210148FFF791FE70BDDE05002066
:1028500030B501464C104C408D106C400D116C4051
:10286000E407620E4C10CD106C400D116C404D1100
:102870006C400125A543EB010C4614431C43204644
:1028800030BDF0B507460E4634783C2F01D03D2FC1
:1028900013D101250BE0705D001984B2FF20000206
:1028A0002040002801D0E4B2641C681CC5B2082D89
:1028B000F1DBE04384B2E0B2F0BD01250BE0705DD6
:1028C000001984B2FF2000022040002801D0E4B2A9
:1028D000641C681CC5B2082DF1DB3846FFF7B8FF51
:1028E000001984B2FF2000022040002801D0E4B289
:1028F000641CE04384B2E0B2DEE70EB50021684616
:1029000001700421417000218170C1700171FF21AB
:102910000172002141720821C17200F01BFB00F01E
:102920006DFA6846FEF708F80EBD10B50321081FC2
:1029300002F0C6F910BD0000F8B505460C46164673
:1029400000BF0020009006206043414940184178B4
:102950000120884081B268460180062060433C49DE
:1029600040184078801C01218140684641800088E1
:102970006946498808430746384600F06FF8062044
:102980006043334940188088A84253DB0021062069
:1029900060432F4A80188180002000F05FF80620F5
:1029A00060432B4940184078401CC1B20620604368
:1029B000274A80184170062060431146401840782D
:1029C000B04243DB042C0AD122488078810022489F
:1029D00008188178062060438018417005E00021C6
:1029E000062060431A4A8018417006206043184947
:1029F00040188078401CC1B206206043144A8018F9
:102A000081700620604311464018807803280ADB55
:102A10000021062060438018817001210620604358
:102A20008018C17012E0002106206043084A801817
:102A3000C1700BE006206043054940188088401CA7
:102A400081B206206043024A80188180F8BD0000F0
:102A5000C0040020E00400208C5A0000F8B50546B0
:102A600000240026002700BF0FE028462041C607AB
:102A7000F60F002E01D0012700E00227A000044A33
:102A8000115838468847601CC4B20A2CEDD3F8BDF3
:102A90009804002070B504460025230002F0B9F820
:102AA0000504051C1D1E790000BF0C2060433A4937
:102AB000085A3A4908800C20604337494018C078CA
:102AC00037490870A10037484358354802782146F5
:102AD0003248008898475DE000BF00BFA01EC5B225
:102AE0000C2060432C4940182E49091F495D89007C
:102AF0004018C0782A4908702A48001F405D8100AC
:102B00002848435826480278214624480088984798
:102B10000620604324494018C078002838D000219E
:102B200006206043204A8018C1701E48001F405D87
:102B3000401C1C49091F48550846405D032801DB1D
:102B4000002048550C206043134940181549091FBF
:102B5000495D8900405A114908800C2060430E49A4
:102B600040181049091F495D89004018C0780C4978
:102B700008700C206043084940180A49091F495D44
:102B800089004018817806206043074A8018417008
:102B900000E000BF00BF70BD5C5A0000F0040020E0
:102BA000F2040020E4040020C0040020F8B505462B
:102BB0000C4616460027002C05D0052C03DA002D04
:102BC00001D00A2E00DDF8BD0620604338494018C8
:102BD00041780120884087B23846FFF73FFF062042
:102BE0006043334940188088A84253DB0021062007
:102BF00060432F4A801881800020FFF72FFF0620B6
:102C000060432B4940184078401CC1B20620604305
:102C1000274A8018417006206043114640184078CA
:102C2000B04243DB042C0AD122488078810022483C
:102C300008188178062060438018417005E0002163
:102C4000062060431A4A80184170062060431849E4
:102C500040188078401CC1B206206043144A801896
:102C600081700620604311464018807803280ADBF3
:102C700000210620604380188170012106206043F6
:102C80008018C17012E0002106206043084A8018B5
:102C9000C1700BE006206043054940188088401C45
:102CA00081B206206043024A8018818000BF8AE713
:102CB000C0040020E00400208C5A000010B504205D
:102CC000FFF7E8FE10BD0000FEB505460C461646AF
:102CD0000020019000900027012C05D0052C03DA7C
:102CE000002D01D0052E00DDFEBD062060434049C9
:102CF0004018407847003846791CCFB20121814006
:102D0000684601800120B84081B268464180008851
:102D100069464988084301900198FFF79FFE062005
:102D20006043334940188088A84253DB00210620C5
:102D300060432F4A801881800020FFF78FFE062015
:102D400060432B4940184078401CC1B206206043C4
:102D5000274A801841700620604311464018407889
:102D6000B04243DB042C0AD12248807881002248FB
:102D700008188178062060438018417005E0002122
:102D8000062060431A4A80184170062060431849A3
:102D900040188078401CC1B206206043144A801855
:102DA00081700620604311464018807803280ADBB2
:102DB00000210620604380188170012106206043B5
:102DC0008018C17012E0002106206043084A801874
:102DD000C1700BE006206043054940188088401C04
:102DE00081B206206043024A8018818000BF7BE7E1
:102DF000C0040020E00400208C5A000010B500F050
:102E00004BF800F001F810BD1CB5022168460180A6
:102E100001218170C1700021417169460120FEF7D6
:102E200045FA0121684601808170C170002141711D
:102E300069460C20FEF73AFA80216846018001219C
:102E40008170C1700021417169460E20FEF72EFA93
:102E50001E2168460180012181700021C1704171ED
:102E600069460C20FEF722FA012168460180817034
:102E70000021C170417169460520FEF717FA402113
:102E800068460180012181700021C170417169464D
:102E90000D20FEF70BFA1CBD1CB50321684601800E
:102EA00000218170C17001714171817169460020FA
:102EB000FEF7FCF9FD216846018000218170C17098
:102EC00001714171817169460120FEF7EFF93F21DF
:102ED0006846018000218170C1700171417181716A
:102EE00069460220FEF7E2F90321684601800021CD
:102EF0008170C17001714171817169460320FEF7D3
:102F0000D5F903216846018000218170C1700171EB
:102F10004171817169460620FEF7C8F93D21684676
:102F2000018000218170C170017141718171694618
:102F30000720FEF7BBF9012168460180002181705E
:102F4000C17001714171817169460E20FEF7AEF9C1
:102F50001CBD0000FEB500260027002001900120C6
:102F6000009000F013FD39463046009B019AFDF7B2
:102F7000E9FE0F490F480068FDF7AEF905462C46FB
:102F8000601E0D49884200D90CE0601E0B49486163
:102F90000321081F01F094FE0020084988610720E2
:102FA000086100BF0348006801F084FFFEBD000017
:102FB000CD070000FC040020FFFFFF0000E000E060
:102FC00000200449087004490870A32080000349C8
:102FD000C88270476E01002078010020801D0440E7
:102FE000F8B505460C4600260027607A0002A17A53
:102FF000084307461B48381800281DD013280ED058
:10300000142826D1287840302072092632461649E5
:1030100020460B30FDF7F6F8F01C60601FE02878C2
:103020004030207205263246104920460B30FDF70D
:10303000E9F8F01C606012E0287840302072092620
:1030400032460B4920460B30FDF7DCF8F01C60607F
:1030500005E028782246122100F064FC00BF00BF82
:10306000F8BD0000800EFFFF435600004C560000E4
:103070005156000070B504461148FEF799F8104DFE
:10308000F12010490862AA204860552088602C6011
:1030900000BF0C480068C007C00F0028F9D00948DD
:1030A00000680121084307490860002008620448BD
:1030B0000068A04201D1012070BD0020FCE70000A3
:1030C0000002500000000240F8B506460C460025FC
:1030D000012760680B2805D200273078224613218B
:1030E00000F020FC012F31D100202C490860002580
:1030F0000FE02A4800680002284908600846006876
:1031000021460831EA1C895C084324490860681C90
:10311000C5B2042DEDD300202049486000250FE002
:103120001E48406800021D49486008464068214624
:103130000831EA1D895C084318494860681CC5B21B
:10314000042DEDD31648154A06CA06C0134908686F
:10315000FFF758F8012805D110494868FFF75FF8D4
:10316000012807D0012F05D130782246312100F007
:10317000D9FB0027012F0AD130784030207220215E
:1031800061720221A172E1720420606004E0307873
:103190002246222100F0C6FBF8BD000014050020E5
:1031A0001C050020027840320A7201224A607047F2
:1031B00070B505460C460026667A1348FFF75AFF9D
:1031C00001281BD12878403020726672022060608E
:1031D000012E02D0812E0AD106E0287840302072DC
:1031E00066720220606008E00020606005E02878D8
:1031F0002246122100F096FB00BF04E02878224608
:10320000222100F08FFB70BD699655AA0446032069
:1032100009498880094800780421884307490870D3
:1032200001210748017372B6206880F3088800BF47
:103230006068804700BFFEE7201104402004024080
:103240002061004010B506480078012807D1FF2012
:10325000F53001F029FE05200003FFF7D7FF10BD70
:103260007804002010B5044A11789088FDF73EF8E4
:103270000249888010BD0000F45A000000050020BB
:1032800070B505460C460026FFF7ECFF2046FEF71A
:10329000D6FF01282DD1607B0006A17B09040843DD
:1032A000E17B09020843217C084357490860607CA0
:1032B0000006A17C09040843E17C09020843217D42
:1032C00008435149486028784030207201216172DA
:1032D000DF21A172FF21E1720421217300216173BA
:1032E00006206060012049490870002048490870A4
:1032F00088E02046FEF751FF012828D145480068A4
:1033000045490860434840684860207B0006617B6F
:1033100009040843A17B09020843E17B08433E49B5
:10332000886028784030207201216172DF21A1720B
:10333000FE21E17204212173002161730620606087
:103340000220324908700020314908705AE02046B6
:10335000FEF76EFF012825D12D48007801280ED1F7
:1033600028784030207203216172DF21A172FF2191
:10337000E1720420606000202549087042E0244882
:103380000078002805D128782246782100F0CAFA72
:1033900038E028782246312100F0C4FA00201C4988
:1033A00008702FE02046FEF7F1FE012825D11848CD
:1033B000007801280ED128784030207203216172F4
:1033C000DF21A172FE21E17204206060002010491B
:1033D000087017E00E480078002805D128782246AA
:1033E000782100F09FFA0DE028782246312100F084
:1033F00099FA00200649087004E028782246122134
:1034000000F090FA70BD00000C050020240500209B
:1034100025050020140500203006002010B5FDF71A
:103420008DFE01210620FEF7C1FA10BD10B501F096
:1034300015FE10BD10B5FFF741FC10BD7047704779
:1034400010B501F0DFFB01F081FAFFF7FBFEFDF79D
:1034500051FC01F087FBFDF745FB10BD70470000F4
:103460000F48007801281AD10D484088401C0C49AB
:103470004880084640880B49098888420FDB0020B5
:103480000749488008468088401C88800846808814
:1034900004494988884202DB00200149888070473E
:1034A000F4040020E85A000000200349C880087096
:1034B0008880488070470000F40400200120014902
:1034C00008707047F404002000200149087070471C
:1034D000F404002010E00948C0880849898888421F
:1034E0000AD0064880880549C88005498968034A8A
:1034F000D288920088588047EDE70000F40400204D
:10350000E85A0000F8B504460D46002600271C487E
:103510002040002802D1002C00D003E0B62119A0E1
:1035200001F00AFC01200003204007131C488442DC
:1035300005D0801C844202D01A48844217D1222030
:103540002840222806D12607360F31463846FDF797
:1035500091FA00901220284012280ED12007000F67
:10356000461C31463846FDF785FA009005E02107F4
:10357000090F3846FDF77EFA00900098F8BD00006C
:103580008CCF00002E2E5C4472697665725C73727B
:10359000635C7363695F636F6D6D6F6E2E630000B4
:1035A0001010000010200000FFB58BB01C4600205A
:1035B0000790069005903848049010210B98084019
:1035C000002801D0022707E040210B98084000287E
:1035D00001D0012700E00027002C04D014980470CB
:1035E0000120089001E010200890002548E0002C00
:1035F00008D025466000294A115A0C98FCF76CFE49
:10360000079006E06800254A115A0C98FCF764FE02
:1036100007903E4630E0711C0798FCF75DFE4008BD
:1036200006900D98FDF70EF803900D9A0699881AEA
:10363000FDF708F81849019001F06EFF0290039918
:10364000FCF724FF05900598FCF7F6FE49004908B1
:10365000039102900498FCF7EFFE4900490801919C
:103660000090039B029A01F023FF03D20A9509966A
:1036700005980490701CC6B27F2ECCDD681CC5B2C4
:1036800008988542B3DB14990A9808701499099830
:10369000487004980FB0F0BD0000C84220560000EA
:1036A000F8B504460D4643482040002802D1002CBE
:1036B00000D004E0FF21A2313FA001F03DFB4549CD
:1036C000601A8C4235D014DC4349601A8C422FD0EA
:1036D00008DC42482018002852D0022857D0102871
:1036E00063D11DE001282BD0022831D01F285CD1E6
:1036F00017E0394A423A811A904231D009DC012858
:103700001FD0022825D035494131401800284CD11E
:1037100044E001292CD0202923D0212945D128E0BB
:1037200000BF2F4E3088294600F05EF807463DE086
:1037300000BF2B4E7088294600F056F8074635E04A
:1037400000BF274EB088294600F04EF807462DE00E
:1037500000BF234EF088294600F046F8074625E0D2
:1037600000BF204E3088294600F03EF807461DE095
:1037700000BF1C4E7088294600F036F8074615E059
:10378000174E7088294600F02FF807460EE0144EB9
:10379000F088294600F028F8074607E0114E7088A7
:1037A000294600F021F8074600E000BF00BF384678
:1037B000F8BD00008CCF00002E2E5C447269766547
:1037C000725C7372635C7363695F636F6D6D6F6E60
:1037D0002E6300004110000021100000F0EFFFFFF9
:1037E00000110440401504400246002013460B40DF
:1037F000002B01D0012000E00020704770B5044686
:1038000000252079002804D0012806D002280ED1F6
:1038100009E02046FDF7AAFB0BE0A2892046A1683B
:10382000FDF78AFB05E02046FDF79CFB01E0012542
:1038300000BF00BF284670BDF8B505460C460026FF
:103840000027667AFDF7E2FB00900098002805D17A
:1038500028782246372100F065F855E0012E02D085
:10386000022E4FD115E028784030207227490220DF
:1038700001F02EF80746002F05D024490988618100
:103880000420606004E028782246352100F04AF8E0
:1038900039E002221D4920460A30FEF7D7FC0128F4
:1038A00010D1287840302072022060600020184932
:1038B0008871164A02210120FDF7C6F9032000F0A5
:1038C00047F81EE0012000F043F811488079401CC1
:1038D0000F49887108468079032805DA287822463E
:1038E000352100F01FF80CE009488079401E084996
:1038F00088710848FDF7A0FB28782246362100F0A1
:1039000011F800E000BF00BFF8BD00002605002050
:1039100000050020102700000149087070470000D2
:103920000005002070B505460E4614467F20207223
:103930006572A672032060600448036AA08881B2A1
:10394000224608323D20FEF78DFD70BD6C5B000005
:1039500001498870704700000005002002498988ED
:10396000091A014A918070470005002010B50548EA
:103970000068401E03490860AC2003494870FFF707
:103980006FFD10BDBC0100200010024010B5FDF716
:103990007DFA0149086010BDFC04002010B58020AC
:1039A0001B4948711A201A49203908722B20487285
:1039B0003C2088724D20C872002016494860FDF7EF
:1039C00065FA154908600020C0431449086014498D
:1039D000086014481449086011490322120289182A
:1039E00048600F49891888600D498918C8600C49DA
:1039F000891808610A498918486109498918886144
:103A000007498918C861AC200849487010BD0000FA
:103A10002004024000B00140FC04002080E200E0ED
:103A200000E100E0C0C0C0C000E400E000100240BF
:103A300010B5002400200D49087201F027F80C4849
:103A40000088401C84B2002C04D009480088401C27
:103A50000749088007480088401C84B2002C04D025
:103A600004480088401C0349088010BD6060004085
:103A700086040020880400208AB203041A431046FA
:103A8000704700000EB500200090019002900021C8
:103A9000684641807D21490201800021017100F0CA
:103AA000A5F803491A20FEF7CFFA00F0A9F90EBDD8
:103AB000313A0000FEB506460D46174600240020A8
:103AC000029001900090002E00D103E08C2115A0FF
:103AD00001F032F9F0202840002802D1002D00D05A
:103AE00003E08D210FA001F027F9304600F0BCF96A
:103AF000002413E00120A040C0B2019001982840AA
:103B0000029001990298884206D10094009CA1007D
:103B100009484058078003E0601CC4B2082CE9DB68
:103B200000BFFEBD2E2E5C4472697665725C7372B6
:103B3000635C74696D2E6300BC05002070B505469A
:103B40000C46002D00D103E055210CA001F0F4F843
:103B5000F0202040002802D1002C00D003E05621A4
:103B600006A001F0E9F8284600F07EF90848406E0A
:103B7000008820430649496E088070BD2E2E5C44A3
:103B800072697665725C7372635C74696D2E630032
:103B90003C05002070B505460C46002D00D103E021
:103BA00069210CA001F0C8F8F0202040002802D1C3
:103BB000002C00D003E06A2106A001F0BDF82846E1
:103BC00000F052F90848806E008820430649896E4B
:103BD000088070BD2E2E5C4472697665725C7372CB
:103BE000635C74696D2E63003C05002010B50446CB
:103BF00001210846FDF71AF975480078FE210840B2
:103C000073490870012173480172002072490872DB
:103C1000A078217908436E4988702079012805D160
:103C20006079042108436A494870C4E02079032878
:103C300002D02079042812D1A07A012802D0A07ADB
:103C4000022802D1002062494870A07A002802D0E0
:103C5000A07A0328E9D101205D494870ABE02079C2
:103C60000228E2D1E0885D490840002803D1E088BD
:103C7000002800D003E08F2159A001F05DF82089D1
:103C80005D490840002800D103E0902154A001F0D4
:103C900053F8207A0007000F002803D040204C4939
:103CA00048700CE02089FF2109010840002803D05A
:103CB00080204749487002E0002045494870207A3A
:103CC000C007C00F002802D000204149C8702089D9
:103CD000102108400011002802D000203C49C87083
:103CE0002089402108408011002802D00120384955
:103CF000C8702089FF21013108400012002802D03D
:103D000002203349C87020890121890208408012AD
:103D1000002802D003202E49C870208902210840C3
:103D20004010002802D004202949C8702089202191
:103D300008404011002802D004202549C87020897D
:103D400080210840C011002802D005202049C870F9
:103D500020890121490208404012002802D0062093
:103D60001B49C87020890121C9020840C0120028DF
:103D700002D007201649C870E088012807D11448EE
:103D800080781349887008464078487013E0E088CE
:103D900002280AD10E4880780D498870084640787C
:103DA000012108430A49487005E009488078082144
:103DB0000843074988706088402802D110200F49C5
:103DC000C8702088401E0249C031088010BD000024
:103DD000402204406061004060600040FCFF000041
:103DE0002E2E5C4472697665725C7372635C7469D2
:103DF0006D612E63000000000CF000002004024002
:103E00000348007801210843014908707047000009
:103E100040220440F0B504460D46164600273246BF
:103E200029462046FEF746FA07463846F0BD70B5EB
:103E300005460C460026667A002E02D0802E0AD156
:103E400006E028784030207266720220606008E048
:103E50000020606005E0287822461221FFF762FD0D
:103E600000BF00BF70BD000000283BD11F49204AA1
:103E70001160891C5160891C9160891CD1601B49AB
:103E8000103111628A1C1A494A62921C8A62921C81
:103E9000CA6216492031164A11648A1C14494A64C0
:103EA000921C8A64921CCA6410493031104A11660F
:103EB000891C5166891C9166891CD166891C116711
:103EC000891C5167891C9167891CD167094A084977
:103ED00080310A60921C4A60064A4C328A60921C09
:103EE000CA6000E000BF00BF70470000801D0440B2
:103EF0003C050020181F0440F3B581B00E46002495
:103F000023488088851EFF2D02D9FF27013700E056
:103F1000AFB238E0A31C1E4A083299181D4A106837
:103F20003A46FDF770F9012826D1E41919480068CE
:103F3000C01918490860AC4210D2281BFF2801D8CC
:103F4000281B87B20199087832467821FFF7EAFCEE
:103F5000012011490870FDF70DF814E00C48407A73
:103F60000E49087001980078403030720846017898
:103F700071720220706006E00199087832462221B1
:103F8000FFF7D0FC01E0AC42C4D300BFFEBD00008F
:103F9000CC0600201C0500206D0100200A05002031
:103FA000FEB504460E46174600250120019000206C
:103FB0000090B088062808D0B088072805D0B088BF
:103FC000082802D0B0880E2800D103E06C2180A020
:103FD00000F0B2FEF088102802D0F088202800D12E
:103FE00003E06D217AA000F0A7FE3089002809D0F7
:103FF000308901214902884204D030890321090215
:10400000884200D103E06E2171A000F095FE708916
:10401000CD210840002803D17089002800D003E09A
:104020006F216BA000F088FE7089222108402228B1
:1040300030D12589072005432581258A2020054385
:10404000B07A0007000F0543009805432582258BB1
:104050000120C00305430420054330890543B0898E
:104060000543F0880543B0880543258321200001DE
:10407000005B450A7878054321200001005B7F2121
:104080004902884369027F225202114008432121DC
:1040900009010853708912210840122844D165890A
:1040A0000720054365815048007C012108434E49A3
:1040B0000874658A202005430098054300BF8815D1
:1040C0000543F08905430220054300BF6582658BE7
:1040D000400305430420054330890543B089054367
:1040E000F089054310200543B088054365833F48A8
:1040F000005B450A787805433C48005B7F21490214
:10410000884369027F22520211400843374908530D
:10411000A58EF089002804D12946019881430D46D7
:1041200001E001980543A5867089122108401228F4
:1041300009D1A18C022211438807800FA18C890824
:1041400089000143A184708922210840222809D1D5
:10415000A18C012211438807800FA18C8908890056
:104160000143A184E18C0020E18C0909090101438C
:10417000E184E08C0009000139780907090F084340
:10418000E084708912210840122809D1618C022232
:1041900011438807800F618C89088900014361847D
:1041A000708922210840222810D1208D0121084346
:1041B0002085608D08436085618C0122114388074A
:1041C000800F618C89088900014361840020FEBD55
:1041D0002E2E5C4472697665725C7372635C7561E5
:1041E00072742E630000000060040440120200009C
:1041F000FEB504460E4617460025042001904003F4
:104200000090B088062808D0B088072805D0B0886C
:10421000082802D0B0880E2800D103E0F52197A02D
:1042200000F08AFDF088102802D0F088202800D104
:1042300003E0F62191A000F07FFD3089002809D02D
:10424000308901214902884204D0308903210902C2
:10425000884200D103E0F72188A000F06DFD70894D
:10426000CD210840002803D17089002800D003E048
:10427000F82182A000F060FD7089222108402228E8
:1042800033D1A58907200543A581A58A20200543B0
:10429000B07A0007000F054300980543A582A58B5F
:1042A0000120C00305430420054330890543B0893C
:1042B0000543F0880543B0880543A58309208001A4
:1042C00020188088450A7878054309208001201845
:1042D00080887F214902884369027F22520211406F
:1042E00008430921890161188880708912210840DA
:1042F00012284AD1E58907200543E5816548007CFD
:104300000421084363490874E58A20200543009886
:10431000054300BF88150543F08905430220054386
:1043200000BFE582E58B4003054304200543308947
:104330000543B0890543F089054310200543B08843
:104340000543E583092080012018C088450A787854
:104350000543092080012018C0887F214902884335
:1043600069027F2252021140084309218901611824
:10437000C880A58EF089002804D129460198814380
:104380000D4601E001980543A58670891221084079
:1043900012280CD1A18C0907890F02221143890030
:1043A0000C2211400846A18C91430143A1847089DD
:1043B0002221084022280CD1A18C0907890F012253
:1043C000114389000C2211400846A18C91430143FE
:1043D000A184E18C0906090F00210901F022114096
:1043E0000846E18C91430143E184E08CF02188434D
:1043F0003978090111400843E0847089122108408E
:1044000012280CD1618C0907890F022211438900FF
:104410000C2211400846618C9143014361847089EC
:1044200022210840222826D1218D0907890F012247
:10443000114389000C2211400846218D914301430C
:104440002185618D0907890F0122114389000C2202
:1044500011400846618D914301436185618C0907D4
:10446000890F0122114389000C2211400846618CFA
:104470009143014361840020FEBD00002E2E5C4468
:1044800072697665725C7372635C756172742E63B7
:104490000000000060040440FEB504460E461746C6
:1044A00000250120019000200090B088062808D047
:1044B000B088072805D0B088082802D0B0880E2818
:1044C00000D104E0FF21803187A000F035FCF088A6
:1044D000102802D0F088202800D104E0FF2181318B
:1044E00081A000F029FC3089002809D03089012101
:1044F0004902884204D0308903210902884200D150
:1045000004E0FF21823178A000F016FC7089CD21F3
:104510000840002803D17089002800D004E0FF2162
:10452000833171A000F008FC708922210840222804
:1045300030D12589072005432581258A2020054380
:10454000B07A0007000F0543009805432582258BAC
:104550000120C00305430420054330890543B08989
:104560000543F0880543B088054325834120C000FA
:10457000005B450A787805434120C000005B7F213D
:104580004902884369027F225202114008434121B7
:10459000C9000853708912210840122844D1658946
:1045A0000720054365815648007C10210843544983
:1045B0000874658A202005430098054300BF8815CC
:1045C0000543F08905430220054300BF6582658BE2
:1045D000400305430420054330890543B089054362
:1045E000F089054310200543B0880543658345489D
:1045F000005B450A787805434248005B7F21490209
:10460000884369027F225202114008433D49085302
:10461000A58EF089002804D12946019881430D46D2
:1046200001E001980543A5867089122108401228EF
:1046300009D1A18C022211438807800FA18C89081F
:1046400089000143A184708922210840222809D1D0
:10465000A18C012211438807800FA18C8908890051
:104660000143A184E18C0020E18C09090901014387
:10467000E184E08C0009000139780907090F08433B
:10468000E084708912210840122809D1618C02222D
:1046900011438807800F618C890889000143618478
:1046A00070892221084022281BD1218D012211432B
:1046B0008807800F218D8908890001432185618D3C
:1046C00011438807800F618D890889000143618546
:1046D000618C11438807800F618C89088900014330
:1046E00061840020FEBD00002E2E5C447269766558
:1046F000725C7372635C756172742E6300000000FB
:10470000600404400A02000070B504460D461048DB
:10471000844205D0801C844202D00E48844200D1DD
:1047200003E00D490DA000F007FB124828400028C7
:1047300002D1002D00D004E00749491C07A000F079
:10474000FBFA29462046FEF7ABFF0646304670BD11
:1047500010100000102000004A0300002E2E5C44C0
:1047600072697665725C7372635C756172742E63D4
:104770000000000098FF000004480078012801D1E3
:104780000348704703480068FBE70000080000206A
:1047900000127A00FC040020F0B585B006460C46F5
:1047A0000020039061893046FEF7ACFE40B20390D2
:1047B0000398002802D0039805B0F0BDB012012183
:1047C000FCF704FB34483018002806D0022822D019
:1047D00001210903401A5AD13BE0304FFFF7CCFFCB
:1047E000019002A80090F88C03071B0F2268304646
:1047F0000199FEF7D9FE05467F21C905284600F03C
:10480000E3FE02D20520C043D6E702AA214638467D
:10481000FFF7C6FB3CE0214FFFF7AEFF019002A877
:104820000090F88C0006030F226830460199FEF7CD
:10483000BBFE05467F21C905284600F0C5FE02D211
:104840000520C043B8E702AA21463846FFF7D0FC4E
:104850001EE0134FFFF790FF019002A80090F88C24
:1048600003071B0F226830460199FEF79DFE05469F
:104870007F21C905284600F0A7FE02D20520C043CB
:104880009AE702AA21463846FFF706FE00E000BF7D
:1048900000BF039890E70000F0EFFFFF0011044015
:1048A0004015044002480068401C014908607047F8
:1048B0009004002010B543104340DB008410634097
:1048C0009AB201231B035A4013120B704A7010BD99
:1048D000FEB504460D46012600200190002701A8E0
:1048E0000090002C01D0002D00D10026FFF7C4F865
:1048F0000090154800880004009908430090009833
:1049000000F0FAFA012E1DD16F460020019015E04B
:10491000684600798007800F032802D100F0D8FA9A
:104920000090684600798007800F395C68460079FE
:10493000295468460079401CC1B20191684600794B
:10494000A042E5D33046FEBD90040020F0B5FFB094
:1049500086B00025002084900026002400278321B3
:10496000890001A8FBF7B6FCFFF79CFFFDF792FC5E
:10497000012806D1FEF7D0FF0120FEF7E9FFFCF782
:104980007DFCFDF781FC002802D17FB006B0F0BDB0
:1049900003AA02A901A8FDF74BFD002800D1F4E706
:1049A00084A8FDF74FF805466846067B48E0E0001E
:1049B000285CB04242D10127E10049198878FDF70F
:1049C000F3FB012806D06946087B01AA1121FEF7F6
:1049D000A9FF3BE0E10049194878FDF703FC0128F5
:1049E00006D06946087B01AA1121FEF79BFF2DE046
:1049F000E1004919C878FDF7E7FB012806D06946B0
:104A0000087B01AA3321FEF78DFF1FE00020839071
:104A1000E00040194068002809D0E1004819E10091
:104A200049194A6801A99047FCF7A4FA05E06946CC
:104A3000087B01AA1121FEF775FF07E0601CC4B2D4
:104A400080A8007C844201DA002DB0D100BFFEF7BF
:104A500009FC012F06D06946087B01AA1121FEF747
:104A600061FF08E00748036A029881B203AA3D206B
:104A7000FDF7F8FC0027012003490870FCF77AFADB
:104A800000BF82E76C5B00006D01002010B5FCF7F1
:104A9000E1FF002802D00120FEF760FFFCF7C0FA1A
:104AA00010BD000030B587B0044600200590069088
:104AB000019002900390049000231F220221052000
:104AC000FCF71CFD00231E2201210520FCF716FD2A
:104AD000022168468182002181750176012181765B
:104AE0000021C17505A90520FCF7E0FB01216846FE
:104AF000818281750021C17505A90520FCF7D6FBCF
:104B000001940721684601811021418100218181A2
:104B10004182802101823221C18101A90748FFF72A
:104B20003BFE0546002D07D0452205A1284600F092
:104B3000ACFA284607B030BD0020FBE7101000009B
:104B40002E2E5C46626C5C6C696E53656E645265B9
:104B500063656976655C756172745F6472762E63F5
:104B60000000000010B521480078002804D001287A
:104B700003D0022837D124E036E01D4800883228CF
:104B800005D21B480088401C1949088018E0002005
:104B90001749088072B617490868FCF7EDFA012832
:104BA00007D11548FEF766FA012802D113490870AB
:104BB00002E002201149087000200C49087062B61A
:104BC00012E00F4B9A6859681868FCF7FCFA012844
:104BD00002D10A49087002E002200849087000204A
:104BE0000249087000E000BF00BF10BD240500208E
:104BF000280500200C050020699655AA25050020EF
:104C000030060020AC200149487070470010024077
:104C1000704730B47446641E2578641CAB4204D3DC
:104C2000635D5B00E31830BC18471D46F8E70000E1
:104C3000002805DBC206D20E01219140014A116015
:104C40007047000080E200E010B5002819DB1A4A26
:104C500003231B02D21883089B00D2588307DC0E63
:104C6000FF23A3409A438B071B0E8407E40EA34047
:104C70001A43114B032424021B198408A4001A515F
:104C800018E00E4A03071B0F083B9B089B00D258F5
:104C90008307DC0EFF23A3409A438B071B0E840778
:104CA000E40EA3401A43054B0407240F083CA40854
:104CB000A4001A5110BD000000E100E01CED00E06E
:104CC00010B5002819DB1A4A03231B02D2188308E7
:104CD0009B00D2588307DC0EFF23A3409A438B0727
:104CE0001B0E8407E40EA3401A43114B0324240235
:104CF0001B198408A4001A5118E00E4A03071B0F61
:104D0000083B9B089B00D2588307DC0EFF23A3407F
:104D10009A438B071B0E8407E40EA3401A43054BEE
:104D20000407240F083CA408A4001A5110BD000079
:104D300000E100E01CED00E0704710B50446012CD6
:104D400003D18021FCF724FD05E0022C03D1802152
:104D50000120FCF7D1FC10BD10B50446012C04D194
:104D600001210220FCF714FD05E0022C03D10121F2
:104D70000220FCF7C1FC10BD10B50446012C04D183
:104D800002210846FCF704FD05E0022C03D10221B4
:104D90000846FCF7B1FC10BD10B50446012C04D147
:104DA00002210020FCF7F4FC05E0022C03D10221D3
:104DB0000020FCF7A1FC10BD10B50446012C04D165
:104DC00004210220FCF7E4FC05E0022C03D10421BD
:104DD0000220FCF791FC10BD10B50446012C04D153
:104DE00001210020FCF7D4FC05E0022C03D10121B5
:104DF0000020FCF781FC10BD10B50446012C03D146
:104E00000821FCF7C5FC05E0022C03D10821012094
:104E1000FCF772FC10BD10B50446012C04D1012131
:104E20000E20FCF7B5FC05E0022C03D101210E2079
:104E3000FCF762FC10BD10B50446012C03D14021E3
:104E4000FCF7A6FC05E0022C03D140210120FCF771
:104E500053FC10BD10B50446012C04D101210846B5
:104E6000FCF796FC05E0022C03D101210846FCF773
:104E700043FC10BD0A49097841430A4A51610021A7
:104E800091610521116100BF0649096901221204DF
:104E900011400029F8D00421024A11617047000036
:104EA0008101002000E000E010B50446204600F03B
:104EB000DAF810BD10B5044603492046FBF70CFA9A
:104EC0000249087010BD000040420F00810100201F
:104ED00007480068400806490978C907C90F4942D0
:104EE000044A11404840024908600846006870477B
:104EF0008C04002003002080002800D1401C0149C0
:104F0000086070478C0400200021034A11710121C0
:104F1000024A1170704700000060004094040020B5
:104F2000F8B5002600250024002700BF8FE00120EF
:104F3000A04087B2002C0FD10C20FBF76FFE054676
:104F400003200002854201DA00260AE00F20000259
:104F5000854206DD012604E039460C20FCF770FB93
:104F60000646002E39D1E0003B494018C078401C6D
:104F7000E100394A8918C870E00011464018C0782D
:104F8000022824DD0020E1008918C8700120E1001A
:104F900089184870E000114640184079E1008918EE
:104FA000497888420BD0E000114640184078E10073
:104FB000891848710120E1008918887107E0E00034
:104FC000254940184079E100234A8918887000205B
:104FD000E100214A8918087137E0E0001E494018B5
:104FE0000079401CE1001C4A89180871E000114654
:104FF00040180079022823DD0020E100891808719B
:10500000E10089184870E000114640184079E1003D
:105010008918497888420BD0E00011464018407842
:10502000E100891848710120E1008918C87107E082
:10503000E000094940184079E100074A8918887062
:105040000020E100044A8918C870601C84B2052C55
:1050500000DA6CE7F8BD00000806002010B5FFF785
:105060005FFF10BD704701B506E00098401E00903C
:105070007D20C000FFF7FEFE00980028F5D108BD96
:1050800010B5FCF733F8002010BD00BE00BFFEE7EE
:1050900010B5044600202B4908742B480068401CBA
:1050A000294908602948C088C007C00F002808D0D7
:1050B0002748C088401C0121090440182549086080
:1050C00004E02348C088401C224908602248007838
:1050D000002816D11F4800682049884231D9002095
:1050E0001F49087002201C49087000201D490860F3
:1050F000FF204D3015492039C88201201A49087017
:105100001FE01548007802281BD115480078401C84
:105110001349087008460078042812DB0020087044
:10512000104908600B211148FDF7E8F901200E49EC
:105130000870032008490870A32080000349203923
:10514000C88210BD4060004064010020A01D0440E2
:10515000601F0440680100206E0100206C6B00009D
:105160006F0100207401002078010020E705002075
:105170001CB5044600202249087307212148FFF787
:10518000C3FA009069460878002803D06846007882
:10519000FFF768FF1C48807C01901C4800780428B9
:1051A00000D11CBD1A4800881A490988884224DDAC
:1051B00018480088012809D13D20FDF749FB6946C0
:1051C0000979884202D104201049087068460079A4
:1051D00011490968087010480068401C0E490860B1
:1051E0000C480088401C0B49088009480088098841
:1051F000884202D101200949087000BFD1E70000B0
:105200002060004010100000001304406E010020D8
:105210005E0100205C010020580100206101002097
:105220000146084600220B4B1A724268002A0DD034
:105230008268002A0AD082681278074B1A74826842
:10524000521C82604268521E426002E00122034BFF
:105250001A70704720600040001304406001002075
:10526000014672B608208F4AD060F12010625520A6
:105270005060AA2090600020C043086000BF8948A9
:105280000068C007C00F0028F9D00120854A1060CF
:105290000020D060F020106262B600207047014606
:1052A00072B610207F4AD060F12010625520506005
:1052B000AA2090600020C043086000BF79480068C1
:1052C000C007C00F0028F9D00120764A10600020E6
:1052D000D060F020106210460068042210400028C0
:1052E00005D004206F4A106062B60120704762B694
:1052F0000020FBE770B503461D46F120694E306281
:10530000002415E072B6AA20664E70605520B06089
:1053100010782870521C6D1C62B600BF614800688E
:10532000C007C00F0028F9D001205E4E3060641C19
:105330008C42E7D3F0205B4E3062002070BDF7B5A1
:10534000FFB0FFB089B006460F460021FFA8C1613B
:10535000012104914802874206D9FFA8C161C069B2
:105360007FB07FB00CB0F0BD029600240DE0029833
:105370000078FFA988610298401C02908869FF2884
:1053800001D000200490601C84B2BC42EFD304988A
:10539000002809D0444845490860FFA83946826A78
:1053A0003046FFF7A7FF6DE0750AF119681C40024F
:1053B000814202D90120039001E000200390710A8C
:1053C00049020191F105C90D0091039800280FD001
:1053D000002408E00198007805A908550198411CAF
:1053E0000191601C84B2012080028442F2DB0EE055
:1053F000002408E00198007805A908550198411C8F
:105400000191601C84B2012040028442F2DB00243E
:105410000DE0FFA8806A01780098001905AA1154D0
:10542000FFA8806A411CFFA88162601C84B2BC4254
:10543000EFD30398002816D01B481C490860680267
:10544000FFF72DFF184819490860691C4802FFF74B
:1054500026FF154815490860680205AA012189023E
:10546000FFF748FF0EE01048104908606802FFF798
:1054700016FF0D480D490860680205AA012149027E
:10548000FFF738FFFFA8C0696AE730B5044600237C
:1054900004E025781570641C521C5B1C8B42F8D309
:1054A00030BD000000000240CDAB3412840100206A
:1054B00070B501251C002D050C4310D4EC4206D418
:1054C000AC420AD48B4200D070BD824270BDEB4228
:1054D00017D4E94215D48B4270BD9B4270BDEC429B
:1054E00006D5AC42F9D5994200D070BD904270BD4E
:1054F0006D005C00EC4204D24C00EC4201D29942B7
:1055000070BD0FB4034C0CBC03BC30B4FBF79EF869
:1055100030BC70BD1900160470B5420064414B00E8
:105520005C41120E39D01B0E38D0FF2A3CD0FF2B25
:105530003AD040024902400A490A060045184E4343
:10554000000A090AD2184843ED017F3A0104731A90
:105550004019190C4318990F04D001215B08490721
:105560005B1A521CD80904D3401CF50301D19D06D7
:1055700007D0FF2A08D2D50506D0E40720434019FA
:1055800070BD0125A843F4E7002A01DCE00770BDE7
:105590002402FF202043C00570BD1B0EFF2A03D04C
:1055A000FF2B01D0E00770BDFF2645003606B5424F
:1055B00006D84D00B54203D8D218FF2A00D0E7E73D
:1055C000004870BD0000C07F01230A00DB050243D4
:1055D0000DD4DA4203D49A4207D481427047D942AB
:1055E00014D4D84212D48142704789427047DA42BB
:1055F00003D59A42F9D5884270475B004A00DA42E7
:1056000004D24200DA4201D2884270474840414009
:1056100010B5024A4840FBF761F810BD09001604B6
:10562000010002000400080010002000400080007B
:10563000000100020004000800100020004000806B
:105640000C0E080000000000000000000000000038
:10565000000000000000000000000000000000004A
:10566000963007772C610EEEBA51099919C46D076F
:105670008FF46A7035A563E9A395649E3288DB0ECA
:10568000A4B8DC791EE9D5E088D9D2972B4CB609AD
:10569000BD7CB17E072DB8E7911DBF906410B71D8A
:1056A000F220B06A4871B9F3DE41BE847DD4DA1AC3
:1056B000EBE4DD6D51B5D4F4C785D38356986C13F4
:1056C000C0A86B647AF962FDECC9658A4F5C01146D
:1056D000D96C0663633D0FFAF50D088DC8206E3B4B
:1056E0005E10694CE44160D5727167A2D1E4033C5D
:1056F00047D4044BFD850DD26BB50AA5FAA8B53584
:105700006C98B242D6C9BBDB40F9BCACE36CD83272
:10571000755CDF45CF0DD6DC593DD1ABAC30D92619
:105720003A00DE518051D7C81661D0BFB5F4B4211C
:1057300023C4B3569995BACF0FA5BDB89EB8022819
:105740000888055FB2D90CC624E90BB1877C6F2F9E
:10575000114C6858AB1D61C13D2D66B69041DC7699
:105760000671DB01BC20D2982A10D5EF8985B17172
:105770001FB5B606A5E4BF9F33D4B8E8A2C9077821
:1057800034F9000F8EA8099618980EE1BB0D6A7FB8
:105790002D3D6D08976C6491015C63E6F4516B6B71
:1057A00062616C1CD83065854E0062F2ED95066C26
:1057B0007BA5011BC1F4088257C40FF5C6D9B0659B
:1057C00050E9B712EAB8BE8B7C88B9FCDF1DDD62F8
:1057D000492DDA15F37CD38C654CD4FB5861B24D5E
:1057E000CE51B53A7400BCA3E230BBD441A5DF4A28
:1057F000D795D83D6DC4D1A4FBF4D6D36AE96943EB
:10580000FCD96E34468867ADD0B860DA732D044495
:10581000E51D03335F4C0AAAC97C0DDD3C710550C0
:10582000AA41022710100BBE86200CC925B5685767
:10583000B3856F2009D466B99FE461CE0EF9DE5EB0
:1058400098C9D9292298D0B0B4A8D7C7173DB35961
:10585000810DB42E3B5CBDB7AD6CBAC02083B8EDF2
:10586000B6B3BF9A0CE2B6039AD2B1743947D5EAFF
:10587000AF77D29D1526DB048316DC73120B63E32E
:10588000843B64943E6A6D0DA85A6A7A0BCF0EE48D
:105890009DFF099327AE000AB19E077D44930FF048
:1058A000D2A3088768F2011EFEC206695D5762F73F
:1058B000CB67658071366C19E7066B6E761BD4FE7C
:1058C000E02BD3895A7ADA10CC4ADD676FDFB9F959
:1058D000F9EFBE8E43BEB717D58EB060E8A3D6D61B
:1058E0007E93D1A1C4C2D83852F2DF4FF167BBD149
:1058F0006757BCA6DD06B53F4B36B248DA2B0DD84C
:105900004C1B0AAFF64A0336607A0441C3EF60DFEE
:1059100055DF67A8EF8E6E3179BE69468CB361CBD7
:105920001A8366BCA0D26F2536E2685295770CCCFC
:1059300003470BBBB91602222F260555BE3BBAC53D
:10594000280BBDB2925AB42B046AB35CA7FFD7C22E
:1059500031CFD0B58B9ED92C1DAEDE5BB0C2649B1F
:1059600026F263EC9CA36A750A936D02A906099C52
:105970003F360EEB8567077213570005824ABF95C5
:10598000147AB8E2AE2BB17B381BB60C9B8ED29248
:105990000DBED5E5B7EFDC7C21DFDB0BD4D2D3869F
:1059A00042E2D4F1F8B3DD686E83DA1FCD16BE8112
:1059B0005B26B9F6E177B06F7747B718E65A0888E3
:1059C000706A0FFFCA3B06665C0B0111FF9E658F74
:1059D00069AE62F8D3FF6B6145CF6C1678E20AA01E
:1059E000EED20DD75483044EC2B30339612667A7A4
:1059F000F71660D04D476949DB776E3E4A6AD1AEF3
:105A0000DC5AD6D9660BDF40F03BD83753AEBCA981
:105A1000C59EBBDE7FCFB247E9FFB5301CF2BDBDEE
:105A20008AC2BACA3093B353A6A3B4240536D0BAF7
:105A30009306D7CD2957DE54BF67D9232E7A66B394
:105A4000B84A61C4021B685D942B6F2A37BE0BB441
:105A5000A18E0CC31BDF055A8DEF022D96000005A9
:105A600000000000000000009600000A0000000096
:105A700000000000960000059600000A960000084D
:105A800096000003960000069600000496000305A9
:105A90009600060A96000608413400001D340000F6
:105AA000413400005D340000413400002D3400001A
:105AB000413400005D340000413400003534000002
:105AC000413400005D340000413400003D340000EA
:105AD000413400005D340000413400003F340000D8
